{
  "address": "0xa297A9fFa4ED9B6c5b108317E9C36a09F03359EC",
  "abi": [
    {
      "inputs": [
        {
          "internalType": "address",
          "name": "signer_",
          "type": "address"
        },
        {
          "internalType": "address",
          "name": "airdropToken_",
          "type": "address"
        }
      ],
      "stateMutability": "nonpayable",
      "type": "constructor"
    },
    {
      "inputs": [],
      "name": "ApprovalCallerNotOwnerNorApproved",
      "type": "error"
    },
    {
      "inputs": [],
      "name": "ApprovalQueryForNonexistentToken",
      "type": "error"
    },
    {
      "inputs": [],
      "name": "BalanceQueryForZeroAddress",
      "type": "error"
    },
    {
      "inputs": [],
      "name": "IllegalArgument",
      "type": "error"
    },
    {
      "inputs": [
        {
          "internalType": "uint256",
          "name": "",
          "type": "uint256"
        }
      ],
      "name": "InvalidMintPrice",
      "type": "error"
    },
    {
      "inputs": [],
      "name": "InvalidUri",
      "type": "error"
    },
    {
      "inputs": [],
      "name": "MintERC2309QuantityExceedsLimit",
      "type": "error"
    },
    {
      "inputs": [],
      "name": "MintToZeroAddress",
      "type": "error"
    },
    {
      "inputs": [],
      "name": "MintZeroQuantity",
      "type": "error"
    },
    {
      "inputs": [],
      "name": "OwnerQueryForNonexistentToken",
      "type": "error"
    },
    {
      "inputs": [],
      "name": "OwnershipNotInitializedForExtraData",
      "type": "error"
    },
    {
      "inputs": [],
      "name": "TransferCallerNotOwnerNorApproved",
      "type": "error"
    },
    {
      "inputs": [],
      "name": "TransferFromIncorrectOwner",
      "type": "error"
    },
    {
      "inputs": [],
      "name": "TransferToNonERC721ReceiverImplementer",
      "type": "error"
    },
    {
      "inputs": [],
      "name": "TransferToZeroAddress",
      "type": "error"
    },
    {
      "inputs": [],
      "name": "URIQueryForNonexistentToken",
      "type": "error"
    },
    {
      "anonymous": false,
      "inputs": [
        {
          "indexed": true,
          "internalType": "address",
          "name": "owner",
          "type": "address"
        },
        {
          "indexed": true,
          "internalType": "address",
          "name": "approved",
          "type": "address"
        },
        {
          "indexed": true,
          "internalType": "uint256",
          "name": "tokenId",
          "type": "uint256"
        }
      ],
      "name": "Approval",
      "type": "event"
    },
    {
      "anonymous": false,
      "inputs": [
        {
          "indexed": true,
          "internalType": "address",
          "name": "owner",
          "type": "address"
        },
        {
          "indexed": true,
          "internalType": "address",
          "name": "operator",
          "type": "address"
        },
        {
          "indexed": false,
          "internalType": "bool",
          "name": "approved",
          "type": "bool"
        }
      ],
      "name": "ApprovalForAll",
      "type": "event"
    },
    {
      "anonymous": false,
      "inputs": [
        {
          "components": [
            {
              "internalType": "uint256",
              "name": "refereeAmount",
              "type": "uint256"
            },
            {
              "internalType": "uint128",
              "name": "firstMintAmount",
              "type": "uint128"
            },
            {
              "internalType": "uint128",
              "name": "defaultMintAmount",
              "type": "uint128"
            }
          ],
          "indexed": false,
          "internalType": "struct AIOdysseyNFTV2.TokenDistribution",
          "name": "oldConfig",
          "type": "tuple"
        },
        {
          "components": [
            {
              "internalType": "uint256",
              "name": "refereeAmount",
              "type": "uint256"
            },
            {
              "internalType": "uint128",
              "name": "firstMintAmount",
              "type": "uint128"
            },
            {
              "internalType": "uint128",
              "name": "defaultMintAmount",
              "type": "uint128"
            }
          ],
          "indexed": false,
          "internalType": "struct AIOdysseyNFTV2.TokenDistribution",
          "name": "newConfig",
          "type": "tuple"
        }
      ],
      "name": "ConfigureTokenDistribution",
      "type": "event"
    },
    {
      "anonymous": false,
      "inputs": [
        {
          "indexed": true,
          "internalType": "uint256",
          "name": "fromTokenId",
          "type": "uint256"
        },
        {
          "indexed": false,
          "internalType": "uint256",
          "name": "toTokenId",
          "type": "uint256"
        },
        {
          "indexed": true,
          "internalType": "address",
          "name": "from",
          "type": "address"
        },
        {
          "indexed": true,
          "internalType": "address",
          "name": "to",
          "type": "address"
        }
      ],
      "name": "ConsecutiveTransfer",
      "type": "event"
    },
    {
      "anonymous": false,
      "inputs": [
        {
          "indexed": true,
          "internalType": "address",
          "name": "previousOwner",
          "type": "address"
        },
        {
          "indexed": true,
          "internalType": "address",
          "name": "newOwner",
          "type": "address"
        }
      ],
      "name": "OwnershipTransferred",
      "type": "event"
    },
    {
      "anonymous": false,
      "inputs": [
        {
          "indexed": false,
          "internalType": "address",
          "name": "account",
          "type": "address"
        }
      ],
      "name": "Paused",
      "type": "event"
    },
    {
      "anonymous": false,
      "inputs": [
        {
          "indexed": true,
          "internalType": "address",
          "name": "from",
          "type": "address"
        },
        {
          "indexed": true,
          "internalType": "address",
          "name": "to",
          "type": "address"
        },
        {
          "indexed": true,
          "internalType": "uint256",
          "name": "tokenId",
          "type": "uint256"
        }
      ],
      "name": "Transfer",
      "type": "event"
    },
    {
      "anonymous": false,
      "inputs": [
        {
          "indexed": false,
          "internalType": "address",
          "name": "account",
          "type": "address"
        }
      ],
      "name": "Unpaused",
      "type": "event"
    },
    {
      "anonymous": false,
      "inputs": [
        {
          "indexed": false,
          "internalType": "uint256",
          "name": "oldPrice",
          "type": "uint256"
        },
        {
          "indexed": false,
          "internalType": "uint256",
          "name": "newPrice",
          "type": "uint256"
        }
      ],
      "name": "UpdateMintPrice",
      "type": "event"
    },
    {
      "anonymous": false,
      "inputs": [
        {
          "indexed": false,
          "internalType": "address",
          "name": "oldSigner",
          "type": "address"
        },
        {
          "indexed": false,
          "internalType": "address",
          "name": "newSigner",
          "type": "address"
        }
      ],
      "name": "UpdateSigner",
      "type": "event"
    },
    {
      "inputs": [],
      "name": "aiNFTToken",
      "outputs": [
        {
          "internalType": "contract AINFTToken",
          "name": "",
          "type": "address"
        }
      ],
      "stateMutability": "view",
      "type": "function"
    },
    {
      "inputs": [
        {
          "internalType": "address",
          "name": "to",
          "type": "address"
        },
        {
          "internalType": "uint256",
          "name": "tokenId",
          "type": "uint256"
        }
      ],
      "name": "approve",
      "outputs": [],
      "stateMutability": "payable",
      "type": "function"
    },
    {
      "inputs": [
        {
          "internalType": "address",
          "name": "owner",
          "type": "address"
        }
      ],
      "name": "balanceOf",
      "outputs": [
        {
          "internalType": "uint256",
          "name": "",
          "type": "uint256"
        }
      ],
      "stateMutability": "view",
      "type": "function"
    },
    {
      "inputs": [],
      "name": "baseURI",
      "outputs": [
        {
          "internalType": "string",
          "name": "",
          "type": "string"
        }
      ],
      "stateMutability": "view",
      "type": "function"
    },
    {
      "inputs": [
        {
          "internalType": "uint256",
          "name": "quantity",
          "type": "uint256"
        },
        {
          "internalType": "bytes",
          "name": "signature",
          "type": "bytes"
        }
      ],
      "name": "batchMint",
      "outputs": [],
      "stateMutability": "nonpayable",
      "type": "function"
    },
    {
      "inputs": [
        {
          "components": [
            {
              "internalType": "uint256",
              "name": "refereeAmount",
              "type": "uint256"
            },
            {
              "internalType": "uint128",
              "name": "firstMintAmount",
              "type": "uint128"
            },
            {
              "internalType": "uint128",
              "name": "defaultMintAmount",
              "type": "uint128"
            }
          ],
          "internalType": "struct AIOdysseyNFTV2.TokenDistribution",
          "name": "newTokenDistributionConfig",
          "type": "tuple"
        }
      ],
      "name": "configureTokenDistribution",
      "outputs": [],
      "stateMutability": "nonpayable",
      "type": "function"
    },
    {
      "inputs": [
        {
          "internalType": "uint256",
          "name": "tokenId",
          "type": "uint256"
        }
      ],
      "name": "getApproved",
      "outputs": [
        {
          "internalType": "address",
          "name": "",
          "type": "address"
        }
      ],
      "stateMutability": "view",
      "type": "function"
    },
    {
      "inputs": [
        {
          "internalType": "address",
          "name": "owner",
          "type": "address"
        },
        {
          "internalType": "address",
          "name": "operator",
          "type": "address"
        }
      ],
      "name": "isApprovedForAll",
      "outputs": [
        {
          "internalType": "bool",
          "name": "",
          "type": "bool"
        }
      ],
      "stateMutability": "view",
      "type": "function"
    },
    {
      "inputs": [],
      "name": "mintPrice",
      "outputs": [
        {
          "internalType": "uint256",
          "name": "",
          "type": "uint256"
        }
      ],
      "stateMutability": "view",
      "type": "function"
    },
    {
      "inputs": [],
      "name": "name",
      "outputs": [
        {
          "internalType": "string",
          "name": "",
          "type": "string"
        }
      ],
      "stateMutability": "view",
      "type": "function"
    },
    {
      "inputs": [],
      "name": "owner",
      "outputs": [
        {
          "internalType": "address",
          "name": "",
          "type": "address"
        }
      ],
      "stateMutability": "view",
      "type": "function"
    },
    {
      "inputs": [
        {
          "internalType": "uint256",
          "name": "tokenId",
          "type": "uint256"
        }
      ],
      "name": "ownerOf",
      "outputs": [
        {
          "internalType": "address",
          "name": "",
          "type": "address"
        }
      ],
      "stateMutability": "view",
      "type": "function"
    },
    {
      "inputs": [],
      "name": "pause",
      "outputs": [],
      "stateMutability": "nonpayable",
      "type": "function"
    },
    {
      "inputs": [],
      "name": "paused",
      "outputs": [
        {
          "internalType": "bool",
          "name": "",
          "type": "bool"
        }
      ],
      "stateMutability": "view",
      "type": "function"
    },
    {
      "inputs": [
        {
          "internalType": "address",
          "name": "",
          "type": "address"
        },
        {
          "internalType": "address",
          "name": "",
          "type": "address"
        }
      ],
      "name": "referenced",
      "outputs": [
        {
          "internalType": "bool",
          "name": "",
          "type": "bool"
        }
      ],
      "stateMutability": "view",
      "type": "function"
    },
    {
      "inputs": [],
      "name": "renounceOwnership",
      "outputs": [],
      "stateMutability": "nonpayable",
      "type": "function"
    },
    {
      "inputs": [
        {
          "internalType": "address",
          "name": "referee",
          "type": "address"
        },
        {
          "internalType": "string",
          "name": "uri",
          "type": "string"
        },
        {
          "internalType": "bytes",
          "name": "signature",
          "type": "bytes"
        }
      ],
      "name": "safeMint",
      "outputs": [],
      "stateMutability": "payable",
      "type": "function"
    },
    {
      "inputs": [
        {
          "internalType": "address",
          "name": "from",
          "type": "address"
        },
        {
          "internalType": "address",
          "name": "to",
          "type": "address"
        },
        {
          "internalType": "uint256",
          "name": "tokenId",
          "type": "uint256"
        }
      ],
      "name": "safeTransferFrom",
      "outputs": [],
      "stateMutability": "payable",
      "type": "function"
    },
    {
      "inputs": [
        {
          "internalType": "address",
          "name": "from",
          "type": "address"
        },
        {
          "internalType": "address",
          "name": "to",
          "type": "address"
        },
        {
          "internalType": "uint256",
          "name": "tokenId",
          "type": "uint256"
        },
        {
          "internalType": "bytes",
          "name": "_data",
          "type": "bytes"
        }
      ],
      "name": "safeTransferFrom",
      "outputs": [],
      "stateMutability": "payable",
      "type": "function"
    },
    {
      "inputs": [
        {
          "internalType": "address",
          "name": "operator",
          "type": "address"
        },
        {
          "internalType": "bool",
          "name": "approved",
          "type": "bool"
        }
      ],
      "name": "setApprovalForAll",
      "outputs": [],
      "stateMutability": "nonpayable",
      "type": "function"
    },
    {
      "inputs": [
        {
          "internalType": "string",
          "name": "baseURI_",
          "type": "string"
        }
      ],
      "name": "setBaseURI",
      "outputs": [],
      "stateMutability": "nonpayable",
      "type": "function"
    },
    {
      "inputs": [],
      "name": "signer",
      "outputs": [
        {
          "internalType": "address",
          "name": "",
          "type": "address"
        }
      ],
      "stateMutability": "view",
      "type": "function"
    },
    {
      "inputs": [
        {
          "internalType": "bytes4",
          "name": "interfaceId",
          "type": "bytes4"
        }
      ],
      "name": "supportsInterface",
      "outputs": [
        {
          "internalType": "bool",
          "name": "",
          "type": "bool"
        }
      ],
      "stateMutability": "view",
      "type": "function"
    },
    {
      "inputs": [],
      "name": "symbol",
      "outputs": [
        {
          "internalType": "string",
          "name": "",
          "type": "string"
        }
      ],
      "stateMutability": "view",
      "type": "function"
    },
    {
      "inputs": [],
      "name": "tokenDistributionConfig",
      "outputs": [
        {
          "internalType": "uint256",
          "name": "refereeAmount",
          "type": "uint256"
        },
        {
          "internalType": "uint128",
          "name": "firstMintAmount",
          "type": "uint128"
        },
        {
          "internalType": "uint128",
          "name": "defaultMintAmount",
          "type": "uint128"
        }
      ],
      "stateMutability": "view",
      "type": "function"
    },
    {
      "inputs": [
        {
          "internalType": "uint256",
          "name": "tokenId",
          "type": "uint256"
        }
      ],
      "name": "tokenURI",
      "outputs": [
        {
          "internalType": "string",
          "name": "",
          "type": "string"
        }
      ],
      "stateMutability": "view",
      "type": "function"
    },
    {
      "inputs": [],
      "name": "totalSupply",
      "outputs": [
        {
          "internalType": "uint256",
          "name": "",
          "type": "uint256"
        }
      ],
      "stateMutability": "view",
      "type": "function"
    },
    {
      "inputs": [
        {
          "internalType": "address",
          "name": "from",
          "type": "address"
        },
        {
          "internalType": "address",
          "name": "to",
          "type": "address"
        },
        {
          "internalType": "uint256",
          "name": "tokenId",
          "type": "uint256"
        }
      ],
      "name": "transferFrom",
      "outputs": [],
      "stateMutability": "payable",
      "type": "function"
    },
    {
      "inputs": [
        {
          "internalType": "address",
          "name": "newOwner",
          "type": "address"
        }
      ],
      "name": "transferOwnership",
      "outputs": [],
      "stateMutability": "nonpayable",
      "type": "function"
    },
    {
      "inputs": [],
      "name": "unpause",
      "outputs": [],
      "stateMutability": "nonpayable",
      "type": "function"
    },
    {
      "inputs": [
        {
          "internalType": "uint256",
          "name": "newMintPrice",
          "type": "uint256"
        }
      ],
      "name": "updateMintPrice",
      "outputs": [],
      "stateMutability": "nonpayable",
      "type": "function"
    },
    {
      "inputs": [
        {
          "internalType": "address",
          "name": "newSigner",
          "type": "address"
        }
      ],
      "name": "updateSigner",
      "outputs": [],
      "stateMutability": "nonpayable",
      "type": "function"
    },
    {
      "inputs": [
        {
          "internalType": "bytes32",
          "name": "",
          "type": "bytes32"
        }
      ],
      "name": "usedUri",
      "outputs": [
        {
          "internalType": "bool",
          "name": "",
          "type": "bool"
        }
      ],
      "stateMutability": "view",
      "type": "function"
    },
    {
      "inputs": [
        {
          "internalType": "address",
          "name": "",
          "type": "address"
        }
      ],
      "name": "userMintCount",
      "outputs": [
        {
          "internalType": "uint256",
          "name": "",
          "type": "uint256"
        }
      ],
      "stateMutability": "view",
      "type": "function"
    },
    {
      "inputs": [
        {
          "internalType": "address payable",
          "name": "to",
          "type": "address"
        }
      ],
      "name": "withdraw",
      "outputs": [],
      "stateMutability": "nonpayable",
      "type": "function"
    },
    {
      "stateMutability": "payable",
      "type": "receive"
    }
  ],
  "transactionHash": "0x3eb455939fa3306266da22f135911703e92fdc2344caab41ca4de57563c3dc87",
  "args": [
    "0xFb15f03AE156b409BD06F9ea4CBBf4131aA7A894",
    "0xF58F4C87286675d4574c0A3194F2bEc753C7ca33"
  ],
  "numDeployments": 3,
  "solcInputHash": "a06e7d68be9370909c0df52dfc24fe74",
  "bytecode": "0x60806040523480156200001157600080fd5b5060405162002bd038038062002bd083398101604081905262000034916200018b565b6040518060400160405280600e81526020016d546865204149204f64797373657960901b81525060405180604001604052806006815260200165105253d3919560d21b81525081600290816200008b919062000268565b5060036200009a828262000268565b506000805550506008805460ff19169055620000b63362000114565b79010f0cf064dd59200000000000000000021e19e0c9bab240000060105569010f0cf064dd59200000600f55601280546001600160a01b039384166001600160a01b031991821617909155600b805492909316911617905562000334565b600880546001600160a01b03838116610100818102610100600160a81b031985161790945560405193909204169182907f8be0079c531659141344cd1fd0a4f28419497f9722a3daafe3b4186f6b6457e090600090a35050565b80516001600160a01b03811681146200018657600080fd5b919050565b600080604083850312156200019f57600080fd5b620001aa836200016e565b9150620001ba602084016200016e565b90509250929050565b634e487b7160e01b600052604160045260246000fd5b600181811c90821680620001ee57607f821691505b6020821081036200020f57634e487b7160e01b600052602260045260246000fd5b50919050565b601f8211156200026357600081815260208120601f850160051c810160208610156200023e5750805b601f850160051c820191505b818110156200025f578281556001016200024a565b5050505b505050565b81516001600160401b03811115620002845762000284620001c3565b6200029c81620002958454620001d9565b8462000215565b602080601f831160018114620002d45760008415620002bb5750858301515b600019600386901b1c1916600185901b1785556200025f565b600085815260208120601f198616915b828110156200030557888601518255948401946001909101908401620002e4565b5085821015620003245787850151600019600388901b60f8161c191681555b5050505050600190811b01905550565b61288c80620003446000396000f3fe6080604052600436106102075760003560e01c80636817c76c11610118578063a7ecd37e116100a0578063d6a217d91161006f578063d6a217d9146105de578063e985e9c514610619578063f2fde38b14610639578063f6dda93614610659578063fb748d581461066c57600080fd5b8063a7ecd37e1461055b578063ab19a7921461057b578063b88d4fde146105ab578063c87b56dd146105be57600080fd5b8063715018a6116100e7578063715018a6146104d95780638456cb59146104ee5780638da5cb5b1461050357806395d89b4114610526578063a22cb4651461053b57600080fd5b80636817c76c1461046e5780636c0360eb146104845780636d2d79741461049957806370a08231146104b957600080fd5b80633591db051161019b57806351cff8d91161016a57806351cff8d9146103a257806355f804b3146103c25780635792a823146103e25780635c975abb146104365780636352211e1461044e57600080fd5b80633591db051461032d5780633950891f1461034d5780633f4ba83a1461037a57806342842e0e1461038f57600080fd5b8063095ea7b3116101d7578063095ea7b3146102c457806318160ddd146102d7578063238ac933146102fa57806323b872dd1461031a57600080fd5b8062728e461461021357806301ffc9a71461023557806306fdde031461026a578063081812fc1461028c57600080fd5b3661020e57005b600080fd5b34801561021f57600080fd5b5061023361022e366004611fe4565b61068c565b005b34801561024157600080fd5b50610255610250366004612013565b6106d5565b60405190151581526020015b60405180910390f35b34801561027657600080fd5b5061027f6106e6565b6040516102619190612080565b34801561029857600080fd5b506102ac6102a7366004611fe4565b610778565b6040516001600160a01b039091168152602001610261565b6102336102d23660046120a8565b6107bc565b3480156102e357600080fd5b50600154600054035b604051908152602001610261565b34801561030657600080fd5b506012546102ac906001600160a01b031681565b6102336103283660046120d4565b61085c565b34801561033957600080fd5b50610233610348366004612157565b610a02565b34801561035957600080fd5b506102ec6103683660046121a3565b600c6020526000908152604090205481565b34801561038657600080fd5b50610233610bac565b61023361039d3660046120d4565b610bbe565b3480156103ae57600080fd5b506102336103bd3660046121a3565b610bde565b3480156103ce57600080fd5b506102336103dd3660046121c0565b610bf3565b3480156103ee57600080fd5b50600f5460105461041191906001600160801b0380821691600160801b90041683565b604080519384526001600160801b039283166020850152911690820152606001610261565b34801561044257600080fd5b5060085460ff16610255565b34801561045a57600080fd5b506102ac610469366004611fe4565b610c08565b34801561047a57600080fd5b506102ec60115481565b34801561049057600080fd5b5061027f610c13565b3480156104a557600080fd5b506102336104b4366004612202565b610ca1565b3480156104c557600080fd5b506102ec6104d43660046121a3565b610cf0565b3480156104e557600080fd5b50610233610d3f565b3480156104fa57600080fd5b50610233610d51565b34801561050f57600080fd5b5060085461010090046001600160a01b03166102ac565b34801561053257600080fd5b5061027f610d61565b34801561054757600080fd5b5061023361055636600461221a565b610d70565b34801561056757600080fd5b506102336105763660046121a3565b610ddc565b34801561058757600080fd5b50610255610596366004611fe4565b600d6020526000908152604090205460ff1681565b6102336105b936600461226e565b610e4d565b3480156105ca57600080fd5b5061027f6105d9366004611fe4565b610e97565b3480156105ea57600080fd5b506102556105f936600461234e565b600e60209081526000928352604080842090915290825290205460ff1681565b34801561062557600080fd5b5061025561063436600461234e565b610fac565b34801561064557600080fd5b506102336106543660046121a3565b610fda565b61023361066736600461237c565b611050565b34801561067857600080fd5b50600b546102ac906001600160a01b031681565b610694611323565b60115460408051918252602082018390527fd973fc2e603ddad5d36aaa80736e40497cab2acf89c4357f67ab8c85ac6b5d32910160405180910390a1601155565b60006106e082611383565b92915050565b6060600280546106f5906123ff565b80601f0160208091040260200160405190810160405280929190818152602001828054610721906123ff565b801561076e5780601f106107435761010080835404028352916020019161076e565b820191906000526020600020905b81548152906001019060200180831161075157829003601f168201915b5050505050905090565b6000610783826113d1565b6107a0576040516333d1c03960e21b815260040160405180910390fd5b506000908152600660205260409020546001600160a01b031690565b60006107c782610c08565b9050336001600160a01b03821614610800576107e38133610fac565b610800576040516367d9dca160e11b815260040160405180910390fd5b60008281526006602052604080822080546001600160a01b0319166001600160a01b0387811691821790925591518593918516917f8c5be1e5ebec7d5bd14f71427d1e84f3dd0314c0f7b2291e5b200ac8c7c3b92591a4505050565b6000610867826113f8565b9050836001600160a01b0316816001600160a01b03161461089a5760405162a1148160e81b815260040160405180910390fd5b60008281526006602052604090208054338082146001600160a01b038816909114176108e7576108ca8633610fac565b6108e757604051632ce44b5f60e11b815260040160405180910390fd5b6001600160a01b03851661090e57604051633a954ecd60e21b815260040160405180910390fd5b61091b868686600161145f565b801561092657600082555b6001600160a01b038681166000908152600560205260408082208054600019019055918716808252919020805460010190554260a01b17600160e11b17600085815260046020526040812091909155600160e11b841690036109b8576001840160008181526004602052604081205490036109b65760005481146109b65760008181526004602052604090208490555b505b83856001600160a01b0316876001600160a01b03167fddf252ad1be2c89b69c2b068fc378daa952ba7f163c4a11628f55a4df523b3ef60405160405180910390a45b505050505050565b33610a0e81848461146c565b610a188185611514565b6001600160a01b0381166000908152600c6020526040902054610a3b8582612449565b6001600160a01b0383166000908152600c6020526040812091909155819003610b1157600b546001600160a01b03166340c10f1983610a7b60018961245c565b601054610a989190600160801b90046001600160801b031661246f565b601054610aae91906001600160801b0316612449565b6040516001600160e01b031960e085901b1681526001600160a01b0390921660048301526024820152604401600060405180830381600087803b158015610af457600080fd5b505af1158015610b08573d6000803e3d6000fd5b50505050610ba5565b600b546010546001600160a01b03909116906340c10f19908490610b46908990600160801b90046001600160801b031661246f565b6040516001600160e01b031960e085901b1681526001600160a01b0390921660048301526024820152604401600060405180830381600087803b158015610b8c57600080fd5b505af1158015610ba0573d6000803e3d6000fd5b505050505b5050505050565b610bb4611323565b610bbc61161f565b565b610bd983838360405180602001604052806000815250610e4d565b505050565b610be6611323565b610bf08147611671565b50565b610bfb611323565b6013610bd98284836124cc565b60006106e0826113f8565b60138054610c20906123ff565b80601f0160208091040260200160405190810160405280929190818152602001828054610c4c906123ff565b8015610c995780601f10610c6e57610100808354040283529160200191610c99565b820191906000526020600020905b815481529060010190602001808311610c7c57829003601f168201915b505050505081565b610ca9611323565b7f08d386485482be6e1c926e079ffc5ccb4c312d3796fc44f60718dd7e2cc3caf1600f82604051610cdb9291906125a1565b60405180910390a180600f610bd9828261260a565b60006001600160a01b038216610d19576040516323d3ad8160e21b815260040160405180910390fd5b506001600160a01b031660009081526005602052604090205467ffffffffffffffff1690565b610d47611323565b610bbc600061178a565b610d59611323565b610bbc6117e4565b6060600380546106f5906123ff565b3360008181526007602090815260408083206001600160a01b03871680855290835292819020805460ff191686151590811790915590519081529192917f17307eab39ab6107e8899845ad3d59bd9653f200f220920489ca2b5937696c31910160405180910390a35050565b610de4611323565b601254604080516001600160a01b03928316815291831660208301527f72959271bae82854684905271432777342373a732ba892607d189cbf5049086f910160405180910390a1601280546001600160a01b0319166001600160a01b0392909216919091179055565b610e5884848461085c565b6001600160a01b0383163b15610e9157610e7484848484611821565b610e91576040516368d2bf6b60e11b815260040160405180910390fd5b50505050565b6060610ea2826113d1565b610ef35760405162461bcd60e51b815260206004820152601f60248201527f55524920717565727920666f72206e6f6e6578697374656e7420746f6b656e0060448201526064015b60405180910390fd5b60008281526009602052604081208054610f0c906123ff565b80601f0160208091040260200160405190810160405280929190818152602001828054610f38906123ff565b8015610f855780601f10610f5a57610100808354040283529160200191610f85565b820191906000526020600020905b815481529060010190602001808311610f6857829003601f168201915b50505050509050600081511115610f9c5792915050565b610fa58361190d565b9392505050565b6001600160a01b03918216600090815260076020908152604080832093909416825291909152205460ff1690565b610fe2611323565b6001600160a01b0381166110475760405162461bcd60e51b815260206004820152602660248201527f4f776e61626c653a206e6577206f776e657220697320746865207a65726f206160448201526564647265737360d01b6064820152608401610eea565b610bf08161178a565b6011543414611074576040516304e73d1560e01b8152346004820152602401610eea565b61108084848484611990565b33600061108c60005490565b6001600160a01b0383166000908152600c60205260409020549091506110b3906001612449565b6001600160a01b0383166000908152600c60205260409020556110d7826001611514565b6111178187878080601f016020809104026020016040519081016040528093929190818152602001838380828437600092019190915250611a8d92505050565b6001600160a01b0382166000908152600c60205260409020546001036111ad57600b546010546040516340c10f1960e01b81526001600160a01b0385811660048301526001600160801b0390921660248201529116906340c10f1990604401600060405180830381600087803b15801561119057600080fd5b505af11580156111a4573d6000803e3d6000fd5b50505050611225565b600b546010546040516340c10f1960e01b81526001600160a01b038581166004830152600160801b9092046001600160801b031660248201529116906340c10f1990604401600060405180830381600087803b15801561120c57600080fd5b505af1158015611220573d6000803e3d6000fd5b505050505b6001600160a01b0387161580159061124f5750816001600160a01b0316876001600160a01b031614155b801561128157506001600160a01b038083166000908152600e60209081526040808320938b168352929052205460ff16155b1561131a576001600160a01b038281166000908152600e602090815260408083208b8516808552925291829020805460ff19166001179055600b54600f5492516340c10f1960e01b8152600481019290925260248201929092529116906340c10f1990604401600060405180830381600087803b15801561130157600080fd5b505af1158015611315573d6000803e3d6000fd5b505050505b50505050505050565b6008546001600160a01b03610100909104163314610bbc5760405162461bcd60e51b815260206004820181905260248201527f4f776e61626c653a2063616c6c6572206973206e6f7420746865206f776e65726044820152606401610eea565b60006301ffc9a760e01b6001600160e01b0319831614806113b457506380ac58cd60e01b6001600160e01b03198316145b806106e05750506001600160e01b031916635b5e139f60e01b1490565b60008054821080156106e0575050600090815260046020526040902054600160e01b161590565b6000816000548110156114465760008181526004602052604081205490600160e01b82169003611444575b80600003610fa5575060001901600081815260046020526040902054611423565b505b604051636f96cda160e11b815260040160405180910390fd5b611467611b11565b610e91565b6040516bffffffffffffffffffffffff19606085901b1660208201526000906114a690603401604051602081830303815290604052611b57565b601254604080516020601f87018190048102820181019092528581529293506114f7926001600160a01b039092169184918790879081908401838280828437600092019190915250611b9292505050565b610e9157604051630134249960e71b815260040160405180910390fd5b60008054908290036115395760405163b562e8dd60e01b815260040160405180910390fd5b611546600084838561145f565b6001600160a01b03831660008181526005602090815260408083208054680100000000000000018802019055848352600490915281206001851460e11b4260a01b178317905582840190839083907fddf252ad1be2c89b69c2b068fc378daa952ba7f163c4a11628f55a4df523b3ef8180a4600183015b8181146115f557808360007fddf252ad1be2c89b69c2b068fc378daa952ba7f163c4a11628f55a4df523b3ef600080a46001016115bd565b508160000361161657604051622e076360e81b815260040160405180910390fd5b60005550505050565b611627611cd4565b6008805460ff191690557f5db9ee0a495bf2e6ff9c91a7834c1ba4fdd244a5e8aa4e537bd38aeae4b073aa335b6040516001600160a01b03909116815260200160405180910390a1565b804710156116c15760405162461bcd60e51b815260206004820152601d60248201527f416464726573733a20696e73756666696369656e742062616c616e63650000006044820152606401610eea565b6000826001600160a01b03168260405160006040518083038185875af1925050503d806000811461170e576040519150601f19603f3d011682016040523d82523d6000602084013e611713565b606091505b5050905080610bd95760405162461bcd60e51b815260206004820152603a60248201527f416464726573733a20756e61626c6520746f2073656e642076616c75652c207260448201527f6563697069656e74206d617920686176652072657665727465640000000000006064820152608401610eea565b600880546001600160a01b03838116610100818102610100600160a81b031985161790945560405193909204169182907f8be0079c531659141344cd1fd0a4f28419497f9722a3daafe3b4186f6b6457e090600090a35050565b6117ec611b11565b6008805460ff191660011790557f62e78cea01bee320cd4e420270b5ea74000d11b0c9f74754ebdbfc544b05a2586116543390565b604051630a85bd0160e11b81526000906001600160a01b0385169063150b7a029061185690339089908890889060040161264e565b6020604051808303816000875af1925050508015611891575060408051601f3d908101601f1916820190925261188e9181019061268b565b60015b6118ef573d8080156118bf576040519150601f19603f3d011682016040523d82523d6000602084013e6118c4565b606091505b5080516000036118e7576040516368d2bf6b60e11b815260040160405180910390fd5b805181602001fd5b6001600160e01b031916630a85bd0160e11b1490505b949350505050565b6060611918826113d1565b61193557604051630a14c4b560e41b815260040160405180910390fd5b600061193f611d1d565b9050805160000361195f5760405180602001604052806000815250610fa5565b8061196984611d2c565b60405160200161197a9291906126a8565b6040516020818303038152906040529392505050565b60006119d185858080601f016020809104026020016040519081016040528093929190818152602001838380828437600092019190915250611b5792505050565b6000818152600d602052604090205490915060ff1615611a04576040516356b1fac560e11b815260040160405180910390fd5b601254604080516020601f8601819004810282018101909252848152611a51926001600160a01b0316918491908790879081908401838280828437600092019190915250611b9292505050565b611a6e576040516356b1fac560e11b815260040160405180910390fd5b6000908152600d60205260409020805460ff1916600117905550505050565b611a96826113d1565b611af95760405162461bcd60e51b815260206004820152602e60248201527f45524337323155524953746f726167653a2055524920736574206f66206e6f6e60448201526d32bc34b9ba32b73a103a37b5b2b760911b6064820152608401610eea565b6000828152600960205260409020610bd982826126d7565b60085460ff1615610bbc5760405162461bcd60e51b815260206004820152601060248201526f14185d5cd8589b194e881c185d5cd95960821b6044820152606401610eea565b6000611b638251611d70565b82604051602001611b75929190612797565b604051602081830303815290604052805190602001209050919050565b6000806000611ba18585611e03565b90925090506000816004811115611bba57611bba6127f2565b148015611bd85750856001600160a01b0316826001600160a01b0316145b15611be857600192505050610fa5565b600080876001600160a01b0316631626ba7e60e01b8888604051602401611c10929190612808565b60408051601f198184030181529181526020820180516001600160e01b03166001600160e01b0319909416939093179092529051611c4e9190612821565b600060405180830381855afa9150503d8060008114611c89576040519150601f19603f3d011682016040523d82523d6000602084013e611c8e565b606091505b5091509150818015611ca1575080516020145b8015611cc857508051630b135d3f60e11b90611cc6908301602090810190840161283d565b145b98975050505050505050565b60085460ff16610bbc5760405162461bcd60e51b815260206004820152601460248201527314185d5cd8589b194e881b9bdd081c185d5cd95960621b6044820152606401610eea565b6060601380546106f5906123ff565b606060a06040510180604052602081039150506000815280825b600183039250600a81066030018353600a900480611d465750819003601f19909101908152919050565b60606000611d7d83611e48565b600101905060008167ffffffffffffffff811115611d9d57611d9d612258565b6040519080825280601f01601f191660200182016040528015611dc7576020820181803683370190505b5090508181016020015b600019016f181899199a1a9b1b9c1cb0b131b232b360811b600a86061a8153600a8504945084611dd157509392505050565b6000808251604103611e395760208301516040840151606085015160001a611e2d87828585611f20565b94509450505050611e41565b506000905060025b9250929050565b60008072184f03e93ff9f4daa797ed6e38ed64bf6a1f0160401b8310611e875772184f03e93ff9f4daa797ed6e38ed64bf6a1f0160401b830492506040015b6d04ee2d6d415b85acef81000000008310611eb3576d04ee2d6d415b85acef8100000000830492506020015b662386f26fc100008310611ed157662386f26fc10000830492506010015b6305f5e1008310611ee9576305f5e100830492506008015b6127108310611efd57612710830492506004015b60648310611f0f576064830492506002015b600a83106106e05760010192915050565b6000807f7fffffffffffffffffffffffffffffff5d576e7357a4501ddfe92f46681b20a0831115611f575750600090506003611fdb565b6040805160008082526020820180845289905260ff881692820192909252606081018690526080810185905260019060a0016020604051602081039080840390855afa158015611fab573d6000803e3d6000fd5b5050604051601f1901519150506001600160a01b038116611fd457600060019250925050611fdb565b9150600090505b94509492505050565b600060208284031215611ff657600080fd5b5035919050565b6001600160e01b031981168114610bf057600080fd5b60006020828403121561202557600080fd5b8135610fa581611ffd565b60005b8381101561204b578181015183820152602001612033565b50506000910152565b6000815180845261206c816020860160208601612030565b601f01601f19169290920160200192915050565b602081526000610fa56020830184612054565b6001600160a01b0381168114610bf057600080fd5b600080604083850312156120bb57600080fd5b82356120c681612093565b946020939093013593505050565b6000806000606084860312156120e957600080fd5b83356120f481612093565b9250602084013561210481612093565b929592945050506040919091013590565b60008083601f84011261212757600080fd5b50813567ffffffffffffffff81111561213f57600080fd5b602083019150836020828501011115611e4157600080fd5b60008060006040848603121561216c57600080fd5b83359250602084013567ffffffffffffffff81111561218a57600080fd5b61219686828701612115565b9497909650939450505050565b6000602082840312156121b557600080fd5b8135610fa581612093565b600080602083850312156121d357600080fd5b823567ffffffffffffffff8111156121ea57600080fd5b6121f685828601612115565b90969095509350505050565b60006060828403121561221457600080fd5b50919050565b6000806040838503121561222d57600080fd5b823561223881612093565b91506020830135801515811461224d57600080fd5b809150509250929050565b634e487b7160e01b600052604160045260246000fd5b6000806000806080858703121561228457600080fd5b843561228f81612093565b9350602085013561229f81612093565b925060408501359150606085013567ffffffffffffffff808211156122c357600080fd5b818701915087601f8301126122d757600080fd5b8135818111156122e9576122e9612258565b604051601f8201601f19908116603f0116810190838211818310171561231157612311612258565b816040528281528a602084870101111561232a57600080fd5b82602086016020830137600060208483010152809550505050505092959194509250565b6000806040838503121561236157600080fd5b823561236c81612093565b9150602083013561224d81612093565b60008060008060006060868803121561239457600080fd5b853561239f81612093565b9450602086013567ffffffffffffffff808211156123bc57600080fd5b6123c889838a01612115565b909650945060408801359150808211156123e157600080fd5b506123ee88828901612115565b969995985093965092949392505050565b600181811c9082168061241357607f821691505b60208210810361221457634e487b7160e01b600052602260045260246000fd5b634e487b7160e01b600052601160045260246000fd5b808201808211156106e0576106e0612433565b818103818111156106e0576106e0612433565b80820281158282048414176106e0576106e0612433565b601f821115610bd957600081815260208120601f850160051c810160208610156124ad5750805b601f850160051c820191505b818110156109fa578281556001016124b9565b67ffffffffffffffff8311156124e4576124e4612258565b6124f8836124f283546123ff565b83612486565b6000601f84116001811461252c57600085156125145750838201355b600019600387901b1c1916600186901b178355610ba5565b600083815260209020601f19861690835b8281101561255d578685013582556020948501946001909201910161253d565b508682101561257a5760001960f88860031b161c19848701351681555b505060018560011b0183555050505050565b6001600160801b0381168114610bf057600080fd5b600060c0820190508354825260018401546001600160801b0380821660208501528160801c604085015284356060850152602085013591506125e28261258c565b90811660808401526040840135906125f98261258c565b80821660a085015250509392505050565b81358155602082013561261c8161258c565b604083013561262a8161258c565b6001600160801b03198160801b166001600160801b03831617600184015550505050565b6001600160a01b038581168252841660208201526040810183905260806060820181905260009061268190830184612054565b9695505050505050565b60006020828403121561269d57600080fd5b8151610fa581611ffd565b600083516126ba818460208801612030565b8351908301906126ce818360208801612030565b01949350505050565b815167ffffffffffffffff8111156126f1576126f1612258565b612705816126ff84546123ff565b84612486565b602080601f83116001811461273a57600084156127225750858301515b600019600386901b1c1916600185901b1785556109fa565b600085815260208120601f198616915b828110156127695788860151825594840194600190910190840161274a565b50858210156127875787850151600019600388901b60f8161c191681555b5050505050600190811b01905550565b7f19457468657265756d205369676e6564204d6573736167653a0a0000000000008152600083516127cf81601a850160208801612030565b8351908301906127e681601a840160208801612030565b01601a01949350505050565b634e487b7160e01b600052602160045260246000fd5b8281526040602082015260006119056040830184612054565b60008251612833818460208701612030565b9190910192915050565b60006020828403121561284f57600080fd5b505191905056fea2646970667358221220878a4eb6e0fa18bf565667923648be5ea5cdd9dc7358dde61f222c933bcc5e8964736f6c63430008120033",
  "devdoc": {
    "events": {
      "Approval(address,address,uint256)": {
        "details": "Emitted when `owner` enables `approved` to manage the `tokenId` token."
      },
      "ApprovalForAll(address,address,bool)": {
        "details": "Emitted when `owner` enables or disables (`approved`) `operator` to manage all of its assets."
      },
      "ConsecutiveTransfer(uint256,uint256,address,address)": {
        "details": "Emitted when tokens in `fromTokenId` to `toTokenId` (inclusive) is transferred from `from` to `to`, as defined in the [ERC2309](https://eips.ethereum.org/EIPS/eip-2309) standard. See {_mintERC2309} for more details."
      },
      "Paused(address)": {
        "details": "Emitted when the pause is triggered by `account`."
      },
      "Transfer(address,address,uint256)": {
        "details": "Emitted when `tokenId` token is transferred from `from` to `to`."
      },
      "Unpaused(address)": {
        "details": "Emitted when the pause is lifted by `account`."
      }
    },
    "kind": "dev",
    "methods": {
      "approve(address,uint256)": {
        "details": "Gives permission to `to` to transfer `tokenId` token to another account. The approval is cleared when the token is transferred. Only a single account can be approved at a time, so approving the zero address clears previous approvals. Requirements: - The caller must own the token or be an approved operator. - `tokenId` must exist. Emits an {Approval} event."
      },
      "balanceOf(address)": {
        "details": "Returns the number of tokens in `owner`'s account."
      },
      "getApproved(uint256)": {
        "details": "Returns the account approved for `tokenId` token. Requirements: - `tokenId` must exist."
      },
      "isApprovedForAll(address,address)": {
        "details": "Returns if the `operator` is allowed to manage all of the assets of `owner`. See {setApprovalForAll}."
      },
      "name()": {
        "details": "Returns the token collection name."
      },
      "owner()": {
        "details": "Returns the address of the current owner."
      },
      "ownerOf(uint256)": {
        "details": "Returns the owner of the `tokenId` token. Requirements: - `tokenId` must exist."
      },
      "paused()": {
        "details": "Returns true if the contract is paused, and false otherwise."
      },
      "renounceOwnership()": {
        "details": "Leaves the contract without owner. It will not be possible to call `onlyOwner` functions anymore. Can only be called by the current owner. NOTE: Renouncing ownership will leave the contract without an owner, thereby removing any functionality that is only available to the owner."
      },
      "safeTransferFrom(address,address,uint256)": {
        "details": "Equivalent to `safeTransferFrom(from, to, tokenId, '')`."
      },
      "safeTransferFrom(address,address,uint256,bytes)": {
        "details": "Safely transfers `tokenId` token from `from` to `to`. Requirements: - `from` cannot be the zero address. - `to` cannot be the zero address. - `tokenId` token must exist and be owned by `from`. - If the caller is not `from`, it must be approved to move this token by either {approve} or {setApprovalForAll}. - If `to` refers to a smart contract, it must implement {IERC721Receiver-onERC721Received}, which is called upon a safe transfer. Emits a {Transfer} event."
      },
      "setApprovalForAll(address,bool)": {
        "details": "Approve or remove `operator` as an operator for the caller. Operators can call {transferFrom} or {safeTransferFrom} for any token owned by the caller. Requirements: - The `operator` cannot be the caller. Emits an {ApprovalForAll} event."
      },
      "supportsInterface(bytes4)": {
        "details": "Returns true if this contract implements the interface defined by `interfaceId`. See the corresponding [EIP section](https://eips.ethereum.org/EIPS/eip-165#how-interfaces-are-identified) to learn more about how these ids are created. This function call must use less than 30000 gas."
      },
      "symbol()": {
        "details": "Returns the token collection symbol."
      },
      "tokenURI(uint256)": {
        "details": "See {IERC721Metadata-tokenURI}."
      },
      "totalSupply()": {
        "details": "Returns the total number of tokens in existence. Burned tokens will reduce the count. To get the total number of tokens minted, please see {_totalMinted}."
      },
      "transferFrom(address,address,uint256)": {
        "details": "Transfers `tokenId` from `from` to `to`. Requirements: - `from` cannot be the zero address. - `to` cannot be the zero address. - `tokenId` token must be owned by `from`. - If the caller is not `from`, it must be approved to move this token by either {approve} or {setApprovalForAll}. Emits a {Transfer} event."
      },
      "transferOwnership(address)": {
        "details": "Transfers ownership of the contract to a new account (`newOwner`). Can only be called by the current owner."
      }
    },
    "version": 1
  },
  "userdoc": {
    "errors": {
      "ApprovalCallerNotOwnerNorApproved()": [
        {
          "notice": "The caller must own the token or be an approved operator."
        }
      ],
      "ApprovalQueryForNonexistentToken()": [
        {
          "notice": "The token does not exist."
        }
      ],
      "BalanceQueryForZeroAddress()": [
        {
          "notice": "Cannot query the balance for the zero address."
        }
      ],
      "MintERC2309QuantityExceedsLimit()": [
        {
          "notice": "The `quantity` minted with ERC2309 exceeds the safety limit."
        }
      ],
      "MintToZeroAddress()": [
        {
          "notice": "Cannot mint to the zero address."
        }
      ],
      "MintZeroQuantity()": [
        {
          "notice": "The quantity of tokens minted must be more than zero."
        }
      ],
      "OwnerQueryForNonexistentToken()": [
        {
          "notice": "The token does not exist."
        }
      ],
      "OwnershipNotInitializedForExtraData()": [
        {
          "notice": "The `extraData` cannot be set on an unintialized ownership slot."
        }
      ],
      "TransferCallerNotOwnerNorApproved()": [
        {
          "notice": "The caller must own the token or be an approved operator."
        }
      ],
      "TransferFromIncorrectOwner()": [
        {
          "notice": "The token must be owned by `from`."
        }
      ],
      "TransferToNonERC721ReceiverImplementer()": [
        {
          "notice": "Cannot safely transfer to a contract that does not implement the ERC721Receiver interface."
        }
      ],
      "TransferToZeroAddress()": [
        {
          "notice": "Cannot transfer to the zero address."
        }
      ],
      "URIQueryForNonexistentToken()": [
        {
          "notice": "The token does not exist."
        }
      ]
    },
    "kind": "user",
    "methods": {},
    "version": 1
  },
  "storageLayout": {
    "storage": [
      {
        "astId": 5652,
        "contract": "contracts/AIOdysseyNFTV2.sol:AIOdysseyNFTV2",
        "label": "_currentIndex",
        "offset": 0,
        "slot": "0",
        "type": "t_uint256"
      },
      {
        "astId": 5654,
        "contract": "contracts/AIOdysseyNFTV2.sol:AIOdysseyNFTV2",
        "label": "_burnCounter",
        "offset": 0,
        "slot": "1",
        "type": "t_uint256"
      },
      {
        "astId": 5656,
        "contract": "contracts/AIOdysseyNFTV2.sol:AIOdysseyNFTV2",
        "label": "_name",
        "offset": 0,
        "slot": "2",
        "type": "t_string_storage"
      },
      {
        "astId": 5658,
        "contract": "contracts/AIOdysseyNFTV2.sol:AIOdysseyNFTV2",
        "label": "_symbol",
        "offset": 0,
        "slot": "3",
        "type": "t_string_storage"
      },
      {
        "astId": 5662,
        "contract": "contracts/AIOdysseyNFTV2.sol:AIOdysseyNFTV2",
        "label": "_packedOwnerships",
        "offset": 0,
        "slot": "4",
        "type": "t_mapping(t_uint256,t_uint256)"
      },
      {
        "astId": 5666,
        "contract": "contracts/AIOdysseyNFTV2.sol:AIOdysseyNFTV2",
        "label": "_packedAddressData",
        "offset": 0,
        "slot": "5",
        "type": "t_mapping(t_address,t_uint256)"
      },
      {
        "astId": 5671,
        "contract": "contracts/AIOdysseyNFTV2.sol:AIOdysseyNFTV2",
        "label": "_tokenApprovals",
        "offset": 0,
        "slot": "6",
        "type": "t_mapping(t_uint256,t_struct(TokenApprovalRef)5584_storage)"
      },
      {
        "astId": 5677,
        "contract": "contracts/AIOdysseyNFTV2.sol:AIOdysseyNFTV2",
        "label": "_operatorApprovals",
        "offset": 0,
        "slot": "7",
        "type": "t_mapping(t_address,t_mapping(t_address,t_bool))"
      },
      {
        "astId": 533,
        "contract": "contracts/AIOdysseyNFTV2.sol:AIOdysseyNFTV2",
        "label": "_paused",
        "offset": 0,
        "slot": "8",
        "type": "t_bool"
      },
      {
        "astId": 396,
        "contract": "contracts/AIOdysseyNFTV2.sol:AIOdysseyNFTV2",
        "label": "_owner",
        "offset": 1,
        "slot": "8",
        "type": "t_address"
      },
      {
        "astId": 4956,
        "contract": "contracts/AIOdysseyNFTV2.sol:AIOdysseyNFTV2",
        "label": "_tokenURIs",
        "offset": 0,
        "slot": "9",
        "type": "t_mapping(t_uint256,t_string_storage)"
      },
      {
        "astId": 4959,
        "contract": "contracts/AIOdysseyNFTV2.sol:AIOdysseyNFTV2",
        "label": "_tokenIdCounter",
        "offset": 0,
        "slot": "10",
        "type": "t_struct(Counter)3269_storage"
      },
      {
        "astId": 4962,
        "contract": "contracts/AIOdysseyNFTV2.sol:AIOdysseyNFTV2",
        "label": "aiNFTToken",
        "offset": 0,
        "slot": "11",
        "type": "t_contract(AINFTToken)4921"
      },
      {
        "astId": 4966,
        "contract": "contracts/AIOdysseyNFTV2.sol:AIOdysseyNFTV2",
        "label": "userMintCount",
        "offset": 0,
        "slot": "12",
        "type": "t_mapping(t_address,t_uint256)"
      },
      {
        "astId": 4970,
        "contract": "contracts/AIOdysseyNFTV2.sol:AIOdysseyNFTV2",
        "label": "usedUri",
        "offset": 0,
        "slot": "13",
        "type": "t_mapping(t_bytes32,t_bool)"
      },
      {
        "astId": 4976,
        "contract": "contracts/AIOdysseyNFTV2.sol:AIOdysseyNFTV2",
        "label": "referenced",
        "offset": 0,
        "slot": "14",
        "type": "t_mapping(t_address,t_mapping(t_address,t_bool))"
      },
      {
        "astId": 4986,
        "contract": "contracts/AIOdysseyNFTV2.sol:AIOdysseyNFTV2",
        "label": "tokenDistributionConfig",
        "offset": 0,
        "slot": "15",
        "type": "t_struct(TokenDistribution)4983_storage"
      },
      {
        "astId": 4988,
        "contract": "contracts/AIOdysseyNFTV2.sol:AIOdysseyNFTV2",
        "label": "mintPrice",
        "offset": 0,
        "slot": "17",
        "type": "t_uint256"
      },
      {
        "astId": 4990,
        "contract": "contracts/AIOdysseyNFTV2.sol:AIOdysseyNFTV2",
        "label": "signer",
        "offset": 0,
        "slot": "18",
        "type": "t_address"
      },
      {
        "astId": 4992,
        "contract": "contracts/AIOdysseyNFTV2.sol:AIOdysseyNFTV2",
        "label": "baseURI",
        "offset": 0,
        "slot": "19",
        "type": "t_string_storage"
      }
    ],
    "types": {
      "t_address": {
        "encoding": "inplace",
        "label": "address",
        "numberOfBytes": "20"
      },
      "t_bool": {
        "encoding": "inplace",
        "label": "bool",
        "numberOfBytes": "1"
      },
      "t_bytes32": {
        "encoding": "inplace",
        "label": "bytes32",
        "numberOfBytes": "32"
      },
      "t_contract(AINFTToken)4921": {
        "encoding": "inplace",
        "label": "contract AINFTToken",
        "numberOfBytes": "20"
      },
      "t_mapping(t_address,t_bool)": {
        "encoding": "mapping",
        "key": "t_address",
        "label": "mapping(address => bool)",
        "numberOfBytes": "32",
        "value": "t_bool"
      },
      "t_mapping(t_address,t_mapping(t_address,t_bool))": {
        "encoding": "mapping",
        "key": "t_address",
        "label": "mapping(address => mapping(address => bool))",
        "numberOfBytes": "32",
        "value": "t_mapping(t_address,t_bool)"
      },
      "t_mapping(t_address,t_uint256)": {
        "encoding": "mapping",
        "key": "t_address",
        "label": "mapping(address => uint256)",
        "numberOfBytes": "32",
        "value": "t_uint256"
      },
      "t_mapping(t_bytes32,t_bool)": {
        "encoding": "mapping",
        "key": "t_bytes32",
        "label": "mapping(bytes32 => bool)",
        "numberOfBytes": "32",
        "value": "t_bool"
      },
      "t_mapping(t_uint256,t_string_storage)": {
        "encoding": "mapping",
        "key": "t_uint256",
        "label": "mapping(uint256 => string)",
        "numberOfBytes": "32",
        "value": "t_string_storage"
      },
      "t_mapping(t_uint256,t_struct(TokenApprovalRef)5584_storage)": {
        "encoding": "mapping",
        "key": "t_uint256",
        "label": "mapping(uint256 => struct ERC721A.TokenApprovalRef)",
        "numberOfBytes": "32",
        "value": "t_struct(TokenApprovalRef)5584_storage"
      },
      "t_mapping(t_uint256,t_uint256)": {
        "encoding": "mapping",
        "key": "t_uint256",
        "label": "mapping(uint256 => uint256)",
        "numberOfBytes": "32",
        "value": "t_uint256"
      },
      "t_string_storage": {
        "encoding": "bytes",
        "label": "string",
        "numberOfBytes": "32"
      },
      "t_struct(Counter)3269_storage": {
        "encoding": "inplace",
        "label": "struct Counters.Counter",
        "members": [
          {
            "astId": 3268,
            "contract": "contracts/AIOdysseyNFTV2.sol:AIOdysseyNFTV2",
            "label": "_value",
            "offset": 0,
            "slot": "0",
            "type": "t_uint256"
          }
        ],
        "numberOfBytes": "32"
      },
      "t_struct(TokenApprovalRef)5584_storage": {
        "encoding": "inplace",
        "label": "struct ERC721A.TokenApprovalRef",
        "members": [
          {
            "astId": 5583,
            "contract": "contracts/AIOdysseyNFTV2.sol:AIOdysseyNFTV2",
            "label": "value",
            "offset": 0,
            "slot": "0",
            "type": "t_address"
          }
        ],
        "numberOfBytes": "32"
      },
      "t_struct(TokenDistribution)4983_storage": {
        "encoding": "inplace",
        "label": "struct AIOdysseyNFTV2.TokenDistribution",
        "members": [
          {
            "astId": 4978,
            "contract": "contracts/AIOdysseyNFTV2.sol:AIOdysseyNFTV2",
            "label": "refereeAmount",
            "offset": 0,
            "slot": "0",
            "type": "t_uint256"
          },
          {
            "astId": 4980,
            "contract": "contracts/AIOdysseyNFTV2.sol:AIOdysseyNFTV2",
            "label": "firstMintAmount",
            "offset": 0,
            "slot": "1",
            "type": "t_uint128"
          },
          {
            "astId": 4982,
            "contract": "contracts/AIOdysseyNFTV2.sol:AIOdysseyNFTV2",
            "label": "defaultMintAmount",
            "offset": 16,
            "slot": "1",
            "type": "t_uint128"
          }
        ],
        "numberOfBytes": "64"
      },
      "t_uint128": {
        "encoding": "inplace",
        "label": "uint128",
        "numberOfBytes": "16"
      },
      "t_uint256": {
        "encoding": "inplace",
        "label": "uint256",
        "numberOfBytes": "32"
      }
    }
  }
}